S0150000547261666669635F6C696768742E73726563D9
S11300000C942A000C9447000C9447000C9447006D
S11300100C9447000C9447000C9447000C94470040
S11300200C9447000C9447000C9447000C944E0227
S11300300C9447000C9447000C9447000C94470020
S11300400C9447000C9447000C9447000C94470010
S11300500C94470011241FBECFE5D8E0DEBFCDBF0E
S113006010E0A0E6B0E0E4EBF5E002C005900D92EC
S1130070A039B107D9F720E0A0E9B0E001C01D9292
S1130080A239B207E1F70E94D0010C94D8020C9473
S113009000009BB394609BBB84FF04C09BB390613E
S11300A09BBB03C09BB39F7E9BBB85FF04C09BB3DC
S11300B090629BBB03C09BB39F7D9BBB86FF04C028
S11300C09BB390649BBB03C09BB39F7B9BBB882368
S11300D024F49BB390689BBB03C09BB39F779BBBEB
S11300E09BB398609BBBEFE9FFE03197F1F700C049
S11300F000009BB3977F9BBBEFE9FFE03197F1F7DB
S113010000C0000080FF04C09BB390619BBB03C090
S11301109BB39F7E9BBB81FF04C09BB390629BBB40
S113012003C09BB39F7D9BBB82FF04C09BB39064C1
S11301309BBB03C09BB39F7B9BBB83FF04C08BB360
S113014080688BBB03C08BB38F778BBB8BB388600A
S11301508BBB8FE99FE00197F1F700C000008BB3E0
S1130160877F8BBBEFE9FFE03197F1F700C0000018
S113017008959BB39B7F9BBB84FF04C09BB390619A
S11301809BBB03C09BB39F7E9BBB85FF04C09BB3FB
S113019090629BBB03C09BB39F7D9BBB86FF04C047
S11301A09BB390649BBB03C09BB39F7B9BBB882387
S11301B024F49BB390689BBB03C09BB39F779BBB0A
S11301C09BB398609BBBEFE9FFE03197F1F700C068
S11301D000009BB3977F9BBBEFE9FFE03197F1F7FA
S11301E000C0000080FF04C09BB390619BBB03C0B0
S11301F09BB39F7E9BBB81FF04C09BB390629BBB60
S113020003C09BB39F7D9BBB82FF04C09BB39064E0
S11302109BBB03C09BB39F7B9BBB83FF04C08BB37F
S113022080688BBB03C08BB38F778BBB8BB3886029
S11302308BBB8FE99FE00197F1F700C000008BB3FF
S1130240877F8BBBEFE9FFE03197F1F700C0000037
S113025008958AB38C6F8ABB83E00E94B9008FE74C
S11302609EE30197F1F700C0000083E00E94B9000B
S11302708FE79EE30197F1F700C0000083E00E943E
S1130280B9008FE79EE30197F1F700C0000082E018
S11302900E94B90088E20E94B90081E00E94B9007E
S11302A086E00E94B9008CE00E94B9009FEF29EF1C
S11302B080E0915020408040E1F700C000000895A4
S11302C00F931F93CF93DF93CDB7DEB72A970FB663
S11302D0F894DEBF0FBECDBF99234CF49095809562
S11302E0709561957F4F8F4F9F4F01E001C000E0F3
S11302F06115710581059105D1F480E30E944900DF
S113030031C02AE030E040E050E00E949702E1E092
S1130310F0E0EC0FFD1FE10FF11D17FDFA95605D94
S11303206083622F732F842F952F1F5F01C010E00D
S1130330611571058105910521F71150013081F492
S11303408DE20E9449000CC0E1E0F0E0EC0FFD1FDB
S1130350E10FF11D17FDFA9580810E9449001150AB
S1130360112394F72A960FB6F894DEBF0FBECDBFC3
S1130370DF91CF911F910F9108950F931F93CF9306
S11303808C01C0E003C00E944900CF5FF801EC0F6C
S1130390F11D80818111F7CFCF911F910F910895A5
S11303A00E9429010E948E0281B3816081BB81B3C6
S11303B0826081BB81B3846081BB82B3816082BB74
S11303C082E690E00E94BD0180EC0E94B9008AE6BA
S11303D090E00E94BD01809161008F3FE1F7809120
S11303E0600081111EC081E08093600083E08093EF
S11303F0610082B38E7F82BB82B3826082BB82B390
S11304008B7F82BB87EC0E94B90082E790E00E9458
S1130410BD0187EC0E94B9008EE790E00E94BD0107
S1130420DACF8130F1F482E08093600082B38E7F72
S113043082BB82B38D7F82BB82B3846082BB84E043
S11304408093610087EC0E94B90082E790E00E94EB
S1130450BD0187EC0E94B90085E890E00E94BD01CF
S1130460BACF1092600082B3816082BB82B38D7F69
S113047082BB82B38B7F82BB85E08093610087EC73
S11304800E94B90082E790E00E94BD0187EC0E94BF
S1130490B9008BE890E00E94BD019DCF1F920F929E
S11304A00FB60F9211242F933F934F935F936F9343
S11304B07F938F939F93AF93BF93EF93FF93809119
S11304C090009091910001969093910080939000F8
S11304D08432944F91F487E80E94B90060916100DE
S11304E08FEF860F8093610070E080E090E00E94BF
S11304F060011092910010929000FF91EF91BF91D2
S1130500AF919F918F917F916F915F914F913F91A7
S11305102F910F900FBE0F901F90189581E883BF05
S113052089B7816089BF8FB780688FBF0895052E12
S113053097FB1EF400940E94AE0257FD07D00E9460
S1130540B60207FC03D04EF40C94AE0250954095CD
S1130550309521953F4F4F4F5F4F0895909580956B
S1130560709561957F4F8F4F9F4F0895A1E21A2E8A
S1130570AA1BBB1BFD010DC0AA1FBB1FEE1FFF1F43
S1130580A217B307E407F50720F0A21BB30BE40B93
S1130590F50B661F771F881F991F1A9469F76095DA
S11305A07095809590959B01AC01BD01CF01089594
S10705B0F894FFCFE9
S11305B402FF54696D65723A200053544154453A1C
S11305C42000202020202020202020202000594505
S11305D44C4C4F5700475245454E00524544000089
S9030000FC
